:100000000C942A000C943F000C943F000C943F0089
:100010000C943F000C943F000C943F000C943F0064
:100020000C943F000C943F000C943F000C943F0054
:100030000C943F000C943F000C943F000C943F0044
:100040000C943F000C943F000C943F000C943F0034
:100050000C943F0011241FBECFE5D8E0DEBFCDBF1A
:1000600010E0A0E6B0E0E2E7F4E302C005900D92F4
:10007000A63CB107D9F70E94AC190C94371A0C941E
:100080000000EF92FF920F931F937B018C0120E001
:1000900030E040E05FE40E94410388238CF0C80117
:1000A000B70120E030E040E05FE40E94B9010E9427
:1000B000A1039B01AC01205030404040504806C095
:1000C000C801B7010E94A1039B01AC01B901CA019B
:1000D0001F910F91FF90EF900895A0E0B0E0E3E74B
:1000E000F0E00C94001ADC012B01FA019C91923093
:1000F00008F439C1EB018881823008F433C19430AF
:1001000069F4843009F02FC111969C91119789816F
:10011000981709F428C1A5EAB0E025C1843009F494
:1001200021C18230A9F4923009F01DC19A01AD01BC
:1001300088E0EA010990AE01E90109929E0181502F
:10014000C1F7E201898111969C918923818308C1BD
:10015000923009F407C112962D903C901397EB0151
:100160008A819B811496AD90BD90CD90DC901797BD
:10017000EC80FD800E811F819101281B390BB90194
:1001800037FF04C066277727621B730B6032710547
:100190000CF061C0121613066CF537014801062EEB
:1001A00004C096948794779467940A94D2F721E0D8
:1001B00030E040E050E004C0220F331F441F551FC1
:1001C0006A95D2F721503040404050402E213F21C7
:1001D00040235123211531054105510521F021E02E
:1001E00030E040E050E079018A01E628F72808294C
:1001F00019293CC0232BD1F1260E371E35014601AB
:10020000062E04C096948794779467940A94D2F744
:1002100021E030E040E050E004C0220F331F441FD3
:10022000551F6A95D2F721503040404050402A2156
:100230003B214C215D21211531054105510521F05E
:1002400021E030E040E050E059016A01A628B728DB
:10025000C828D9280BC0821593052CF01C01AA24AC
:10026000BB24650103C0EE24FF24870111969C91F5
:10027000D20111968C91981709F445C0992339F051
:10028000A80197012A193B094C095D0906C0A6017E
:1002900095012E193F09400B510B57FD08C01182E3
:1002A0003382228224833583468357831DC081E0B5
:1002B00081833382228288279927DC01821B930B5A
:1002C000A40BB50B84839583A683B7830DC0220F3F
:1002D000331F441F551F24833583468357838281F0
:1002E000938101979383828324813581468157814D
:1002F000DA01C9010197A109B1098F5F9F4FAF4F83
:10030000BF4328F30BC0918333822282EA0CFB1C8B
:100310000C1D1D1DE482F5820683178383E0808314
:10032000248135814681578157FF1AC0C901AA2708
:1003300097FDA095BA2F81709070A070B0705695FF
:10034000479537952795822B932BA42BB52B848328
:100350009583A683B7838281938101969383828359
:10036000DF0101C0D201CD01CDB7DEB7E2E10C94CF
:100370001C1AA0E2B0E0EFEBF1E00C940C1A6983D8
:100380007A838B839C832D833E834F835887E9E058
:10039000EE2EF12CEC0EFD1ECE010196B7010E944F
:1003A000CA048E010F5E1F4FCE010596B8010E9450
:1003B000CA048A8991E089278A8BC701B801AE01F6
:1003C000475E5F4F0E946D000E94F503A096E6E035
:1003D0000C94281AA0E2B0E0E0EFF1E00C940C1AC3
:1003E00069837A838B839C832D833E834F835887D5
:1003F000F9E0EF2EF12CEC0EFD1ECE010196B701B7
:100400000E94CA048E010F5E1F4FCE010596B801EF
:100410000E94CA04C701B801AE01475E5F4F0E9447
:100420006D000E94F503A096E6E00C94281AA0E265
:10043000B0E0EDE1F2E00C94001A69837A838B83DB
:100440009C832D833E834F835887CE010196BE0146
:10045000675F7F4F0E94CA04CE010596BE016F5EA2
:100460007F4F0E94CA049985923088F08989823032
:10047000C8F0943019F4823051F404C0843029F467
:10048000923081F485EA90E0C6C0923049F420E0D1
:100490009A858A89981321E02A87CE010996BBC0E4
:1004A000823049F420E09A858A89981321E02A8BCA
:1004B000CE014196B0C02D843E844F8458886D880B
:1004C0007E888F88988CEE24FF248701AA24BB2481
:1004D000650140E050E060E070E0E0E0F0E0C10184
:1004E00081709070892BE9F0E60CF71C081D191D2E
:1004F0009A01AB012A0D3B1D4C1D5D1D80E090E073
:10050000A0E0B0E0E614F7040805190520F481E046
:1005100090E0A0E0B0E0BA01A901480F591F6A1F9E
:100520007B1FAA0CBB1CCC1CDD1C97FE08C081E005
:1005300090E0A0E0B0E0A82AB92ACA2ADB2A3196C6
:10054000E032F10549F0660C771C881C991C569422
:10055000479437942794C3CFFA85EA892B893C893D
:100560008B859C85280F391F2E5F3F4F17C0CA010E
:1005700081709070892B61F016950795F794E79438
:1005800080E090E0A0E0B0E8E82AF92A0A2B1B2BD3
:1005900076956795579547952F5F3F4F77FDE7CF46
:1005A0000CC0440F551F661F771F17FD4160EE0CEE
:1005B000FF1C001F111F21503040403090E05907B0
:1005C00090E0690790E4790760F32B8F3C8FDB01A3
:1005D000CA018F779070A070B07080349105A1052A
:1005E000B10561F447FD0AC0E114F10401051105EC
:1005F00029F0405C5F4F6F4F7F4F40781A8EFE1797
:1006000011F081E08A8F4D8F5E8F6F8F78A383E02A
:10061000898FCE0149960E94F503A096E2E10C94E1
:100620001C1AA8E1B0E0E7E1F3E00C940C1A69832E
:100630007A838B839C832D833E834F83588789E005
:10064000E82EF12CEC0EFD1ECE010196B7010E94A2
:10065000CA048E010F5E1F4FCE010596B8010E949D
:10066000CA048985823040F08989823028F0C70128
:10067000B8010E94420501C08FEF6896E6E00C9435
:10068000281AA8E1B0E0E7E4F3E00C940C1A6983BF
:100690007A838B839C832D833E834F83588789E0A5
:1006A000E82EF12CEC0EFD1ECE010196B7010E9442
:1006B000CA048E010F5E1F4FCE010596B8010E943D
:1006C000CA048985823040F08989823028F0C701C8
:1006D000B8010E94420501C08FEF6896E6E00C94D5
:1006E000281AA8E1B0E0E7E7F3E00C940C1A69835C
:1006F0007A838B839C832D833E834F83588789E045
:10070000E82EF12CEC0EFD1ECE010196B7010E94E1
:10071000CA048E010F5E1F4FCE010596B8010E94DC
:10072000CA048985823040F08989823028F0C70167
:10073000B8010E94420501C081E06896E6E00C9491
:10074000281AACE0B0E0E7EAF3E00C94101A6983F1
:100750007A838B839C83CE010196BE016B5F7F4FB2
:100760000E94CA048D81823061F1823050F1843060
:1007700021F48E81882351F12EC02F81388537FDD9
:1007800020C06E812F3131051CF06623F9F023C0A3
:100790008EE190E0821B930B29853A854B855C8521
:1007A00004C056954795379527958A95D2F76623C5
:1007B000B1F050954095309521953F4F4F4F5F4F89
:1007C0000EC020E030E040E050E009C02FEF3FEFE6
:1007D0004FEF5FE704C020E030E040E050E8B901AF
:1007E000CA012C96E2E00C942C1ADF92EF92FF9251
:1007F0000F931F93FC01E480F58006811781D1805F
:100800008081823048F480E090E0A0E1B0E0E82A06
:10081000F92A0A2B1B2BA5C0843009F49FC0823013
:1008200021F4EE24FF24870105C0E114F104010541
:10083000110519F4E0E0F0E096C0628173819FEF4A
:10084000623879070CF05BC022E83FEF261B370BBC
:100850002A3131052CF020E030E040E050E02AC0A1
:10086000B801A701022E04C0769567955795479564
:100870000A94D2F781E090E0A0E0B0E004C0880FD5
:10088000991FAA1FBB1F2A95D2F70197A109B10989
:100890008E219F21A023B1230097A105B10521F04E
:1008A00081E090E0A0E0B0E09A01AB01282B392B69
:1008B0004A2B5B2BDA01C9018F779070A070B07062
:1008C00080349105A105B10539F427FF09C0205CEA
:1008D0003F4F4F4F5F4F04C0215C3F4F4F4F5F4F23
:1008E000E0E0F0E02030A0E03A07A0E04A07A0E412
:1008F0005A0710F0E1E0F0E079018A0127C0603882
:10090000710564F5FB01E158FF4FD801C7018F77EE
:100910009070A070B07080349105A105B10539F4D4
:10092000E7FE0DC080E490E0A0E0B0E004C08FE3FB
:1009300090E0A0E0B0E0E80EF91E0A1F1B1F17FFB1
:1009400005C016950795F794E794319687E01695BC
:100950000795F794E7948A95D1F705C0EE24FF2414
:100960008701EFEFF0E06E2F679566276795902F70
:100970009F77D794DD24D7948E2F8695492F462BC9
:10098000582F5D29B701CA011F910F91FF90EF9079
:10099000DF900895FC01DB01408151812281622FAB
:1009A0006F7770E0221F2227221F9381892F880FE3
:1009B000822B282F30E0991F9927991F11969C931D
:1009C000119721153105A9F54115510561057105ED
:1009D00011F482E037C082E89FEF13969C938E93C8
:1009E00012979A01AB0167E0220F331F441F551F76
:1009F0006A95D1F783E08C930DC0220F331F441FFB
:100A0000551F12968D919C911397019713969C9365
:100A10008E931297203080E0380780E0480780E40A
:100A2000580758F314962D933D934D935C93179765
:100A300008952F3F310579F4411551056105710580
:100A400019F484E08C93089564FF03C081E08C93D3
:100A500012C01C9210C02F57304013963C932E9317
:100A6000129783E08C9387E0440F551F661F771F12
:100A70008A95D1F7706414964D935D936D937C9332
:100A8000179708951F93DC01FB019C91923008F4A5
:100A900047C08081823008F443C0943051F41196ED
:100AA0001C91843099F58181682F70E0611B710978
:100AB0003FC0843021F0923031F48230B9F181812D
:100AC000882389F12DC011961C9111978230F1F085
:100AD00081811817D9F412962D913C911397828138
:100AE00093818217930794F028173907BCF0149666
:100AF0008D919D910D90BC91A02D248135814681D1
:100B00005781281739074A075B0718F4112341F06A
:100B10000AC082179307A407B50740F4112319F000
:100B200061E070E005C06FEF7FEF02C060E070E051
:100B3000CB011F9108950F931F93DF93CF93CDB7F0
:100B4000DEB7C75CD0400FB6F894DEBF0FBECDBF96
:100B50000E94E30D0E9421130E946212FE01E957D8
:100B6000FF4F83E48083FE01EA57FF4F108280E647
:100B700090E061E042E00E946F190E94A512FE0120
:100B8000E957FF4F8083FE01E957FF4F808183348F
:100B9000A1F3FE01E957FF4F8081843209F49BC124
:100BA000FE01EA57FF4F8081282F30E0CE018857A1
:100BB0009F4FDC01A20FB31FFE01E957FF4F808159
:100BC0008C93DE01AA57BF4FFE01EA57FF4F808189
:100BD0008F5F8C93FE01E957FF4F8081882F90E053
:100BE000A0E0B0E0FE01EA57FF4FBC01CD0142E0BA
:100BF00020810E948919FE01E359FF4F80E090E0B7
:100C0000A8ECB2E480839183A283B3838E01075959
:100C10001F4FFE01E359FF4F6081718182819381F3
:100C200020E030E04AE753E40E941702DC01CB01E8
:100C3000F80180839183A283B383FE01E759FF4FBC
:100C4000608171818281938120E030E040E85FE340
:100C50000E947103882344F4FE01E959FF4F81E0AB
:100C600090E09183808364C0FE01E759FF4F60816B
:100C700071818281938120E03FEF4FE757E40E942A
:100C8000110318160CF043C0FE01E359FF4F6081B9
:100C900071818281938120E030E040E251E40E9442
:100CA0001702DC01CB018E0109591F4FBC01CD0198
:100CB0000E944100DC01CB01F801918380831FC0B9
:100CC000FE01EB59FF4F89E190E091838083FE01A3
:100CD000EB59FF4F808191810197F1F7FE01EB59AC
:100CE000FF4F91838083DE01A959BF4FFE01E9596F
:100CF000FF4F80819181019711969C938E93FE0105
:100D0000E959FF4F808191810097D1F627C08E016C
:100D100009591F4FFE01E759FF4F608171818281A0
:100D200093810E944100DC01CB01F8019183808313
:100D3000DE01AD59BF4FFE01E959FF4F808191811E
:100D40008D939C93FE01ED59FF4F80819181019716
:100D5000F1F7FE01ED59FF4F91838083FE01EA57C1
:100D6000FF4F8AE262E040810E945819FE01E15A79
:100D7000FF4F80E090E0A8ECB2E480839183A283EF
:100D8000B3838E01055A1F4FFE01E15AFF4F608168
:100D900071818281938120E030E04AE753E40E9430
:100DA0001702DC01CB01F80180839183A283B38316
:100DB000FE01E55AFF4F608171818281938120E0BD
:100DC00030E040E85FE30E947103882344F4FE01B1
:100DD000E75AFF4F81E090E09183808364C0FE0179
:100DE000E55AFF4F608171818281938120E03FEF5E
:100DF0004FE757E40E94110318160CF043C0FE01A0
:100E0000E15AFF4F608171818281938120E030E05F
:100E100040E251E40E941702DC01CB018E01075A27
:100E20001F4FBC01CD010E944100DC01CB01F80144
:100E3000918380831FC0FE01E95AFF4F89E190E052
:100E400091838083FE01E95AFF4F80819181019750
:100E5000F1F7FE01E95AFF4F91838083DE01A75A23
:100E6000BF4FFE01E75AFF4F808191810197119694
:100E70009C938E93FE01E75AFF4F808191810097EA
:100E8000D1F67BCE8E01075A1F4FFE01E55AFF4F68
:100E900060817181828193810E944100DC01CB01DC
:100EA000F80191838083DE01AB5ABF4FFE01E75A00
:100EB000FF4F8081918111969C938E93FE01EB5A96
:100EC000FF4F808191810197F1F7FE01EB5AFF4FAF
:100ED0009183808352CE0E944619FE01EB57FF4F4B
:100EE00010828FE690E061E042E00E946F190E945C
:100EF000A512FE01E957FF4F8083FE01E957FF4F1E
:100F000080818334A1F3FE01E957FF4F8081843251
:100F100009F4E7C0FE01EB57FF4F8081282F30E036
:100F2000CE0188569F4FDC01A20FB31FFE01E95787
:100F3000FF4F80818C93DE01AB57BF4FFE01EB5713
:100F4000FF4F80818F5F8C93FE01E957FF4F8081B7
:100F5000882F90E0A0E0B0E0FE01EB57FF4FBC010E
:100F6000CD0142E020810E948919FE01EF5AFF4F16
:100F700080E090E0A8ECB2E480839183A283B38305
:100F80008E01035B1F4FFE01EF5AFF4F608171819D
:100F90008281938120E030E04AE753E40E94170207
:100FA000DC01CB01F80180839183A283B383FE012E
:100FB000E35BFF4F608171818281938120E030E0AB
:100FC00040E85FE30E947103882344F4FE01E55B7F
:100FD000FF4F81E090E09183808364C0FE01E35B7A
:100FE000FF4F608171818281938120E03FEF4FE765
:100FF00057E40E94110318160CF043C0FE01EF5A8B
:10100000FF4F608171818281938120E030E040E276
:1010100051E40E941702DC01CB018E01055B1F4FDA
:10102000BC01CD010E944100DC01CB01F80191839C
:1010300080831FC0FE01E75BFF4F89E190E0918351
:101040008083FE01E75BFF4F808191810197F1F77B
:10105000FE01E75BFF4F91838083DE01A55BBF4FFD
:10106000FE01E55BFF4F80819181019711969C9372
:101070008E93FE01E55BFF4F808191810097D1F651
:1010800027C08E01055B1F4FFE01E35BFF4F6081B0
:101090007181828193810E944100DC01CB01F801C2
:1010A00091838083DE01A95BBF4FFE01E55BFF4FAB
:1010B000808191818D939C93FE01E95BFF4F80813C
:1010C00091810197F1F7FE01E95BFF4F91838083E6
:1010D000FE01EB57FF4F8AE262E040810E945819FF
:1010E00006CFFE01ED5BFF4F80E090E0A8ECB2E49C
:1010F00080839183A283B3838E01015C1F4FFE0125
:10110000ED5BFF4F608171818281938120E030E04F
:101110004AE753E40E941702DC01CB01F801808307
:101120009183A283B383FE01FF96608171818281E6
:10113000938120E030E040E85FE30E947103882360
:101140002CF481E090E09EAF8DAF46C0FE01FF968B
:10115000608171818281938120E03FEF4FE757E406
:101160000E941103181664F5FE01ED5BFF4F6081CC
:1011700071818281938120E030E040E251E40E945D
:101180001702DC01CB01BC01CD010E944100DC0152
:10119000CB019EAF8DAF0FC089E190E09CAF8BAFCC
:1011A0008BAD9CAD0197F1F79CAF8BAF8DAD9EAD34
:1011B00001979EAF8DAF8DAD9EAD009769F716C0BC
:1011C000FE01FF9660817181828193810E944100BE
:1011D000DC01CB019EAF8DAF8DAD9EAD9AAF89AFD7
:1011E00089AD9AAD0197F1F79AAF89AF0E94461980
:1011F000FE01ED57FF4F81E090E091838083FE0177
:10120000EE57FF4F10822AC0FE01EE57FF4F80813C
:10121000282F30E0CE0188569F4FFC01E20FF31FCC
:101220004081FE01EE57FF4F8081282F30E0CE0134
:1012300088579F4FFC01E20FF31F80814817C1F0D0
:10124000FE01ED57FF4F11821082DE01AE57BF4FF6
:10125000FE01EE57FF4F80818F5F8C93FE01EE57AA
:10126000FF4FDE01AA57BF4F90818C91981760F213
:101270008FE790E061E042E00E946F19FE01E058C4
:10128000FF4F1182108289C080E090E0AFEAB3E4A2
:101290008DAB9EABAFABB8AF6DA97EA98FA998AD52
:1012A00020E030E04AE753E40E941702DC01CB0162
:1012B00089AB9AABABABBCAB69A97AA98BA99CA94A
:1012C00020E030E040E85FE30E94710388232CF4C3
:1012D00081E090E098AB8FA73FC069A97AA98BA95C
:1012E0009CA920E03FEF4FE757E40E941103181636
:1012F0004CF56DA97EA98FA998AD20E030E040E2C1
:1013000051E40E941702DC01CB01BC01CD010E9417
:101310004100DC01CB0198AB8FA70FC089E190E0C1
:101320009EA78DA78DA59EA50197F1F79EA78DA7D6
:101330008FA598A9019798AB8FA78FA598A900971B
:1013400069F714C069A97AA98BA99CA90E944100D8
:10135000DC01CB0198AB8FA78FA598A99CA78BA781
:101360008BA59CA50197F1F79CA78BA7FE01E058E0
:10137000FF4F8081982F975F8EE261E0492F0E9496
:101380005819DE01A058BF4FFE01E058FF4F808181
:101390009181019611969C938E93FE01E058FF4F28
:1013A00080819181833091050CF46ECFFE01ED5761
:1013B000FF4F80819181009709F4ACC280E090E0FA
:1013C000AAEFB3E48FA398A7A9A7BAA76FA178A59E
:1013D00089A59AA520E030E04AE753E40E9417026D
:1013E000DC01CB018BA39CA3ADA3BEA36BA17CA10D
:1013F0008DA19EA120E030E040E85FE30E947103F0
:1014000088232CF481E090E09AA389A33FC06BA1CC
:101410007CA18DA19EA120E03FEF4FE757E40E9401
:10142000110318164CF56FA178A589A59AA520E09F
:1014300030E040E251E40E941702DC01CB01BC0124
:10144000CD010E944100DC01CB019AA389A30FC00A
:1014500089E190E098A38F8F8F8D98A10197F1F784
:1014600098A38F8F89A19AA101979AA389A389A193
:101470009AA1009769F714C06BA17CA18DA19EA1D0
:101480000E944100DC01CB019AA389A389A19AA102
:101490009E8F8D8F8D8D9E8D0197F1F79E8F8D8FF5
:1014A0000E94461980E090E0AAEFB3E4898F9A8FFA
:1014B000AB8FBC8F698D7A8D8B8D9C8D20E030E059
:1014C0004AE753E40E941702DC01CB018D8B9E8B0F
:1014D000AF8BB88F6D897E898F89988D20E030E041
:1014E00040E85FE30E94710388232CF481E090E0E0
:1014F0009C8B8B8B3FC06D897E898F89988D20E076
:101500003FEF4FE757E40E94110318164CF5698D21
:101510007A8D8B8D9C8D20E030E040E251E40E947A
:101520001702DC01CB01BC01CD010E944100DC01AE
:10153000CB019C8B8B8B0FC089E190E09A8B898BC0
:1015400089899A890197F1F79A8B898B8B899C8974
:1015500001979C8B8B8B8B899C89009769F714C0B2
:101560006D897E898F89988D0E944100DC01CB01B5
:101570009C8B8B8B8B899C89988B8F878F85988987
:101580000197F1F7988B8F8787E890E061E045E05D
:101590000E946F1980E090E0A6E1B4E48B879C87FD
:1015A000AD87BE876B857C858D859E8520E030E08C
:1015B0004AE753E40E941702DC01CB018F8398872E
:1015C000A987BA876F81788589859A8520E030E080
:1015D00040E85FE30E94710388232CF481E090E0EF
:1015E0009E838D833FC06F81788589859A8520E0B1
:1015F0003FEF4FE757E40E94110318164CF56B8537
:101600007C858D859E8520E030E040E251E40E949B
:101610001702DC01CB01BC01CD010E944100DC01BD
:10162000CB019E838D830FC089E190E09C838B83E7
:101630008B819C810197F1F79C838B838D819E81A7
:1016400001979E838D838D819E81009769F714C0D9
:101650006F81788589859A850E944100DC01CB01E4
:101660009E838D838D819E819A83898389819A81CE
:101670000197F1F79A8389830E944619FE01E25887
:10168000FF4F11821082FE01E458FF4F1082FE01CD
:10169000E558FF4F1082FE01E658FF4F108231C11E
:1016A000FE01E858FF4F11821082FE01EA58FF4FF9
:1016B0001082FE01EB58FF4F1082FE01EC58FF4FE5
:1016C0001082FE01ED58FF4F10820E94A512FE010C
:1016D000E958FF4F8083FE01E958FF4F8081833432
:1016E000A1F3FE01E958FF4F80818D3291F0FE0198
:1016F000E958FF4F80818B3261F0FE01E958FF4FBE
:101700008081853231F0FE01E958FF4F80818837B2
:1017100091F4DE01A858BF4FFE01E958FF4F8081C8
:10172000882F90E08D939C93FE01E958FF4F8081B4
:101730000E947D15D9C0FE01E958FF4F80818D338D
:1017400009F040C0FE01EF58FF4F1182108226C001
:10175000FE01EF58FF4F20813181CE0188549F4F09
:10176000FC01E20FF31F8081882F90E0A0E0B0E041
:10177000FE01EF58FF4F2081285FBC01CD0142E000
:101780000E948919DE01AF58BF4FFE01EF58FF4F8D
:1017900080819181019611969C938E93FE01EA5867
:1017A000FF4F8081282F30E0FE01EF58FF4F8081EE
:1017B00091818217930764F2FE01ED58FF4F81E09B
:1017C000808392C0FE01E958FF4F8081843241F44A
:1017D0000E944619FE01EC58FF4F81E0808384C0CF
:1017E000FE01EA58FF4F8081282F30E0CE01885457
:1017F0009F4FDC01A20FB31FFE01E958FF4F80810C
:101800008C93DE01AA58BF4FFE01EA58FF4F80813A
:101810008F5F8C93FE01E958FF4F8081882F90E005
:10182000A0E0B0E0BC01CD010E949C184ECF0E9408
:10183000A512FE01E958FF4F8083FE01E958FF4FD2
:1018400080818334A1F3FE01E958FF4F80818D33FD
:10185000B9F4FE01E858FF4F5081CE0188549F4FE4
:101860009E0120543F4FFE01EA58FF4FDE01AB5866
:10187000BF4FB90140812C91052F0E949C0C41C0A3
:10188000FE01E958FF4F8081843241F40E944619DD
:10189000FE01EC58FF4F81E0808333C0FE01EB581E
:1018A000FF4F8081282F30E0CE0180549F4FDC0114
:1018B000A20FB31FFE01E958FF4F80818C93DE0118
:1018C000AB58BF4FFE01EB58FF4F80818F5F8C9369
:1018D000FE01E958FF4F8081882F90E0A0E0B0E042
:1018E000BC01CD010E949C18FE01EC58FF4F808185
:1018F000882339F4FE01ED58FF4F8081882309F4D5
:1019000096CFFE01ED57FF4F80819181009709F03E
:10191000C7CE06C00E9446198FE890E00E946C185E
:10192000C953DF4F0FB6F894DEBF0FBECDBFCF91C6
:10193000DF911F910F9108950F93DF93CF93CDB750
:10194000DEB7A1970FB6F894DEBF0FBECDBF9A8F5A
:10195000898F7C8F6B8F4D8F2E8F0F8FE98DFA8D36
:101960008081882F90E0988F8F8BEB8DFC8D80810C
:10197000882F90E09E8B8D8B81E090E09C838B8301
:1019800020C08F89988D9C01220F331FC901880FB9
:10199000991F880F991FA901480F591F2B813C815E
:1019A000898D9A8DFC01E20FF31F8081882F90E0D2
:1019B000840F951F988F8F8B8B819C8101969C83C0
:1019C0008B838D8D282F30E08B819C81821793072C
:1019D000C4F281E090E09A83898320C08D899E893A
:1019E0009C01220F331FC901880F991F880F991F6F
:1019F000A901480F591F29813A818B8D9C8DFC01CB
:101A0000E20FF31F8081882F90E0840F951F9E8B3B
:101A10008D8B89819A8101969A8389838E8D282F57
:101A200030E089819A8182179307C4F28F8D282F25
:101A300030E039A328A348A159A14D32510589F1BD
:101A400088A199A18E32910564F428A139A125328B
:101A5000310509F487C048A159A14B32510541F025
:101A6000A8C088A199A18837910509F45CC0A1C0DC
:101A70002F89388D8D899E89820F931FAA2797FD04
:101A8000A095BA2F898B9A8BAB8BBC8B89899A894D
:101A9000AB89BC89BC01CD0142E02CE00E948919D0
:101AA00088C02F89388D8D899E892817390704F5BC
:101AB0002D893E898F89988DA901481B590BCA0130
:101AC000AA2797FDA095BA2F8D879E87AF87B88BE1
:101AD0008DE262E04BE00E9458198D859E85AF85AE
:101AE000B889BC01CD0142E02CE00E94891961C097
:101AF0002F89388D8D899E89A901481B590BCA01F0
:101B0000AA2797FDA095BA2F8D879E87AF87B88BA0
:101B10008D859E85AF85B889BC01CD0142E02CE062
:101B20000E94891946C02F89388D8D899E89AC0104
:101B3000249FC001259F900D349F900D1124AA274A
:101B400097FDA095BA2F89879A87AB87BC8789852F
:101B50009A85AB85BC85BC01CD0142E02AE00E949C
:101B6000891927C08D899E89009749F40E944619DA
:101B70008EE990E061E043E00E946F191AC08F89FE
:101B8000988D2D893E89B9010E94B719CB01AA27EA
:101B900097FDA095BA2F8D839E83AF83B8878D81E3
:101BA0009E81AF81B885BC01CD0142E02AE00E9450
:101BB0008919A1960FB6F894DEBF0FBECDBFCF91A5
:101BC000DF910F910895DF93CF930F92CDB7DEB7DA
:101BD00081E08983EAE3F0E08FEF8083E7E3F0E0E0
:101BE0008FEF8083E4E3F0E08FE08083E1E3F0E0D7
:101BF00085ED8083EBE3F0E01082E8E3F0E0108213
:101C0000E5E3F0E08FEF8083E2E3F0E010821982F9
:101C100089810F90CF91DF910895DF93CF9300D00A
:101C200000D00F92CDB7DEB78A836B8381E08983C2
:101C30008A818430A0F58A81282F30E03D832C836F
:101C40008C819D8181309105D1F02C813D812230A4
:101C500031052CF48C819D81009761F01EC02C8190
:101C60003D812230310581F08C819D818330910549
:101C700081F013C0EAE3F0E08B8180830EC0E7E3DC
:101C8000F0E08B81808309C0E4E3F0E08B81808306
:101C900004C0E1E3F0E08B818083198202C083E01D
:101CA000898389810F900F900F900F900F90CF91A3
:101CB000DF910895DF93CF9300D000D00F92CDB77E
:101CC000DEB78A836B8381E089838A818430A0F5C3
:101CD0008A81282F30E03D832C838C819D81813047
:101CE0009105D1F02C813D81223031052CF48C817D
:101CF0009D81009761F01EC02C813D81223031050D
:101D000081F08C819D818330910581F013C0EBE3DC
:101D1000F0E08B8180830EC0E8E3F0E08B8180836C
:101D200009C0E5E3F0E08B81808304C0E2E3F0E0EA
:101D30008B818083198202C083E0898389810F901F
:101D40000F900F900F900F90CF91DF910895DF9338
:101D5000CF9300D000D000D0CDB7DEB78A836B839D
:101D60004C8381E089838A81843008F0D4C08B81E0
:101D7000883008F0D0C08C81823008F0CCC08A81D5
:101D8000843008F0CAC08A81282F30E03E832D833A
:101D90006D817E816130710509F441C08D819E8124
:101DA0008230910534F42D813E812115310571F089
:101DB000B0C06D817E816230710509F459C08D819A
:101DC0009E818330910509F47CC0A3C0AAE3B0E0F2
:101DD000EAE3F0E08081482F8B81282F30E081E01A
:101DE00090E002C0880F991F2A95E2F7809584231E
:101DF0008C93AAE3B0E0EAE3F0E08081482F8C8185
:101E0000282F30E08B81882F90E0B90102C0660F47
:101E1000771F8A95E2F7CB01842B8C937AC0A7E3D6
:101E2000B0E0E7E3F0E08081482F8B81282F30E09D
:101E300081E090E002C0880F991F2A95E2F7809513
:101E400084238C93A7E3B0E0E7E3F0E08081482FA0
:101E50008C81282F30E08B81882F90E0B90102C05F
:101E6000660F771F8A95E2F7CB01842B8C9351C0C4
:101E7000A4E3B0E0E4E3F0E08081482F8B81282FD9
:101E800030E081E090E002C0880F991F2A95E2F7C8
:101E9000809584238C93A4E3B0E0E4E3F0E08081B8
:101EA000482F8C81282F30E08B81882F90E0B9015A
:101EB00002C0660F771F8A95E2F7CB01842B8C93C3
:101EC00028C0A1E3B0E0E1E3F0E08081482F8B81FE
:101ED000282F30E081E090E002C0880F991F2A95FA
:101EE000E2F7809584238C93A1E3B0E0E1E3F0E096
:101EF0008081482F8C81282F30E08B81882F90E0C3
:101F0000B90102C0660F771F8A95E2F7CB01842BD7
:101F10008C93198202C083E08983898126960FB64B
:101F2000F894DEBF0FBECDBFCF91DF910895DF9350
:101F3000CF9300D000D000D0CDB7DEB78A836B83BB
:101F40004C8381E089838A81843008F0D0C08B8102
:101F5000883008F0CCC08C81823008F0C8C08A81FB
:101F6000282F30E03E832D836D817E8161307105A5
:101F700009F441C08D819E818230910534F42D8118
:101F80003E812115310571F0B0C06D817E816230D6
:101F9000710509F459C08D819E818330910509F442
:101FA0007CC0A3C0ABE3B0E0EBE3F0E08081482F5E
:101FB0008B81282F30E081E090E002C0880F991FCC
:101FC0002A95E2F7809584238C93ABE3B0E0EBE3B2
:101FD000F0E08081482F8C81282F30E08B81882F82
:101FE00090E0B90102C0660F771F8A95E2F7CB0136
:101FF000842B8C937AC0A8E3B0E0E8E3F0E0808122
:10200000482F8B81282F30E081E090E002C0880FBC
:10201000991F2A95E2F7809584238C93A8E3B0E07A
:10202000E8E3F0E08081482F8C81282F30E08B811D
:10203000882F90E0B90102C0660F771F8A95E2F7FA
:10204000CB01842B8C9351C0A5E3B0E0E5E3F0E035
:102050008081482F8B81282F30E081E090E002C002
:10206000880F991F2A95E2F7809584238C93A5E326
:10207000B0E0E5E3F0E08081482F8C81282F30E04C
:102080008B81882F90E0B90102C0660F771F8A9577
:10209000E2F7CB01842B8C9328C0A2E3B0E0E2E30B
:1020A000F0E08081482F8B81282F30E081E090E0A4
:1020B00002C0880F991F2A95E2F7809584238C939C
:1020C000A2E3B0E0E2E3F0E08081482F8C81282F8A
:1020D00030E08B81882F90E0B90102C0660F771F36
:1020E0008A95E2F7CB01842B8C93198202C083E09E
:1020F0008983898126960FB6F894DEBF0FBECDBFC7
:10210000CF91DF910895DF93CF9300D000D0CDB76A
:10211000DEB78A8381E089838A81843008F040C0F9
:102120008A81282F30E03C832B838B819C818130F6
:102130009105E9F02B813C81223031052CF48B8113
:102140009C81009761F02AC02B813C8122303105AF
:10215000B1F08B819C8183309105C9F01FC0ABE346
:10216000B0E0EBE3F0E0808180958C9317C0A8E3AA
:10217000B0E0E8E3F0E0808180958C930FC0A5E3A8
:10218000B0E0E5E3F0E0808180958C9307C0A2E3A6
:10219000B0E0E2E3F0E0808180958C93198202C088
:1021A00083E0898389810F900F900F900F90CF91DA
:1021B000DF910895DF93CF9300D000D00F92CDB779
:1021C000DEB78A836B8319828A81843008F074C0F9
:1021D0008B81883008F070C08A81282F30E03D83E1
:1021E0002C838C819D818130910549F12C813D8129
:1021F000223031052CF48C819D81009761F05AC00A
:102200002C813D812230310571F18C819D8183309B
:102210009105E9F14FC0ABE3B0E0EBE3F0E0808182
:10222000482F8B81282F30E081E090E0022E02C001
:10223000880F991F0A94E2F784278C933BC0A8E388
:10224000B0E0E8E3F0E08081482F8B81282F30E078
:1022500081E090E0022E02C0880F991F0A94E2F7F5
:1022600084278C9327C0A5E3B0E0E5E3F0E080810C
:10227000482F8B81282F30E081E090E0022E02C0B1
:10228000880F991F0A94E2F784278C9313C0A2E366
:10229000B0E0E2E3F0E08081482F8B81282F30E02E
:1022A00081E090E0022E02C0880F991F0A94E2F7A5
:1022B00084278C93198202C083E0898389810F90DF
:1022C0000F900F900F900F90CF91DF910895DF93B3
:1022D000CF9300D000D000D0CDB7DEB78A837C8307
:1022E0006B8319828B819C81009709F442C08A819B
:1022F0008430E0F58A81282F30E03E832D838D8164
:102300009E8181309105E1F02D813E8122303105A1
:102310002CF48D819E81009761F026C02D813E8135
:1023200022303105A1F08D819E8183309105B1F07D
:102330001BC0E9E3F0E08081EB81FC81808314C065
:10234000E6E3F0E08081EB81FC8180830DC0E3E374
:10235000F0E08081EB81FC81808306C0E0E3F0E067
:102360008081EB81FC818083198205C083E08983B1
:1023700002C082E08983898126960FB6F894DEBF79
:102380000FBECDBFCF91DF910895DF93CF93CDB72F
:10239000DEB727970FB6F894DEBF0FBECDBF8A8396
:1023A0006B835D834C8319828C819D81009709F436
:1023B0007DC08A81843008F076C08B81883008F037
:1023C00072C08A81282F30E03F832E834E815F8147
:1023D0004130510559F18E819F818230910534F44D
:1023E0002E813F812115310569F05BC04E815F81EF
:1023F0004230510579F18E819F818330910509F436
:102400003DC04FC0E9E3F0E08081282F30E08B81B0
:10241000882F90E0A90102C0559547958A95E2F76B
:10242000CA018170EC81FD8180833BC0E6E3F0E06E
:102430008081282F30E08B81882F90E0A90102C095
:10244000559547958A95E2F7CA018170EC81FD8127
:10245000808327C0E3E3F0E08081282F30E08B8188
:10246000882F90E0A90102C0559547958A95E2F71B
:10247000CA018170EC81FD81808313C0E0E3F0E04C
:102480008081282F30E08B81882F90E0A90102C045
:10249000559547958A95E2F7CA018170EC81FD81D7
:1024A0008083198205C083E0898302C082E089832A
:1024B000898127960FB6F894DEBF0FBECDBFCF91AE
:1024C000DF910895DF93CF93CDB7DEB782E064E06C
:1024D00040E00E94A70E82E065E040E00E94A70E67
:1024E00082E066E040E00E94A70E82E067E040E004
:1024F0000E94A70E82E060E041E00E94A70E82E009
:1025000061E041E00E94A70E82E062E041E00E94AB
:10251000A70E82E063E041E00E94A70E82E064E043
:1025200041E00E94970F82E065E041E00E94970F32
:1025300082E066E041E00E94970F82E067E041E0C0
:102540000E94970FCF91DF910895DF93CF9300D032
:1025500000D00F92CDB7DEB783E48B831A82198245
:102560001A8260C08A81882F90E0FC01EF54FF4FEF
:10257000908182E0692F40E00E94970F19823FC04E
:1025800083E48C838981882F90E0FC01E355FF4F21
:1025900090819E012C5F3F4F82E0692FA9010E942C
:1025A000C5118C81882341F58981482F50E08A81AB
:1025B000282F30E0CA01880F991F880F991F820FBA
:1025C000931FFC01EB54FF4F80818B830FC08981E7
:1025D000882F90E0FC01E355FF4F90819E012C5F16
:1025E0003F4F82E0692FA9010E94C5118C81882389
:1025F00071F38B818D831CC089818F5F8983898171
:10260000843008F4BDCF8A81882F90E0FC01EF541C
:10261000FF4F908182E0692F41E00E94970F8A81ED
:102620008F5F8A838A81843008F49CCF8B818D836D
:102630008D810F900F900F900F900F90CF91DF91A1
:102640000895DF93CF93CDB7DEB7E9970FB6F8942F
:10265000DEBF0FBECDBF19AE81E062E041E00E9457
:10266000A70E982F89AD892B89AF81E061E041E009
:102670000E94A70E982F89AD892B89AF81E060E079
:1026800041E00E94A70E982F89AD892B89AF80E089
:1026900060E041E00E94A70E982F89AD892B89AF99
:1026A00080E061E041E00E94A70E982F89AD892B60
:1026B00089AF80E062E041E00E94A70E982F89ADCB
:1026C000892B89AF80E063E041E00E94A70E982F3C
:1026D00089AD892B89AF80E090E0ACE0B2E48DABAE
:1026E0009EABAFABB8AF6DA97EA98FA998AD20E026
:1026F00030E04AE753E40E941702DC01CB0189ABCA
:102700009AABABABBCAB69A97AA98BA99CA920E019
:1027100030E040E85FE30E94710388232CF481E0FD
:1027200090E098AB8FA73FC069A97AA98BA99CA913
:1027300020E03FEF4FE757E40E94110318164CF5D5
:102740006DA97EA98FA998AD20E030E040E251E468
:102750000E941702DC01CB01BC01CD010E944100A7
:10276000DC01CB0198AB8FA70FC089E190E09EA759
:102770008DA78DA59EA50197F1F79EA78DA78FA583
:1027800098A9019798AB8FA78FA598A9009769F78B
:1027900014C069A97AA98BA99CA90E944100DC01F7
:1027A000CB0198AB8FA78FA598A99CA78BA78BA5CA
:1027B0009CA50197F1F79CA78BA780E064E041E01E
:1027C0000E94A70E982F89AD892B89AF80E065E024
:1027D00041E00E94A70E982F89AD892B89AF80E038
:1027E00066E041E00E94A70E982F89AD892B89AF42
:1027F00080E067E041E00E94A70E982F89AD892B09
:1028000089AF88E30E944617982F89AD892B89AF3D
:1028100080E090E0A0E8BFE38FA398A7A9A7BAA79C
:102820006FA178A589A59AA520E030E04AE753E496
:102830000E941702DC01CB018BA39CA3ADA3BEA316
:102840006BA17CA18DA19EA120E030E040E85FE378
:102850000E94710388232CF481E090E09AA389A35D
:102860003FC06BA17CA18DA19EA120E03FEF4FE76F
:1028700057E40E94110318164CF56FA178A589A59D
:102880009AA520E030E040E251E40E941702DC010A
:10289000CB01BC01CD010E944100DC01CB019AA318
:1028A00089A30FC089E190E098A38F8F8F8D98A1A5
:1028B0000197F1F798A38F8F89A19AA101979AA305
:1028C00089A389A19AA1009769F714C06BA17CA183
:1028D0008DA19EA10E944100DC01CB019AA389A396
:1028E00089A19AA19E8F8D8F8D8D9E8D0197F1F775
:1028F0009E8F8D8F8FE00E944617982F89AD892B70
:1029000089AF80E090E0A0E8BFE3898F9A8FAB8F1A
:10291000BC8F698D7A8D8B8D9C8D20E030E04AE7ED
:1029200053E40E941702DC01CB018D8B9E8BAF8B91
:10293000B88F6D897E898F89988D20E030E040E8DE
:102940005FE30E94710388232CF481E090E09C8B6C
:102950008B8B3FC06D897E898F89988D20E03FEFFA
:102960004FE757E40E94110318164CF5698D7A8DD4
:102970008B8D9C8D20E030E040E251E40E941702F4
:10298000DC01CB01BC01CD010E944100DC01CB0187
:102990009C8B8B8B0FC089E190E09A8B898B898906
:1029A0009A890197F1F79A8B898B8B899C8901977A
:1029B0009C8B8B8B8B899C89009769F714C06D89E0
:1029C0007E898F89988D0E944100DC01CB019C8B10
:1029D0008B8B8B899C89988B8F878F8598890197A2
:1029E000F1F7988B8F8781E00E944617982F89AD69
:1029F000892B89AF80E090E0A0E0B0E48B879C87D2
:102A0000AD87BE876B857C858D859E8520E030E017
:102A10004AE753E40E941702DC01CB018F839887B9
:102A2000A987BA876F81788589859A8520E030E00B
:102A300040E85FE30E94710388232CF481E090E07A
:102A40009E838D833FC06F81788589859A8520E03C
:102A50003FEF4FE757E40E94110318164CF56B85C2
:102A60007C858D859E8520E030E040E251E40E9427
:102A70001702DC01CB01BC01CD010E944100DC0149
:102A8000CB019E838D830FC089E190E09C838B8373
:102A90008B819C810197F1F79C838B838D819E8133
:102AA00001979E838D838D819E81009769F714C065
:102AB0006F81788589859A850E944100DC01CB0170
:102AC0009E838D838D819E819A83898389819A815A
:102AD0000197F1F79A83898386E00E944617982F21
:102AE00089AD892B89AF89ADE9960FB6F894DEBF21
:102AF0000FBECDBFCF91DF910895DF93CF9300D06C
:102B0000CDB7DEB78A83198281E062E041E00E949E
:102B1000970F982F8981892B89838A810E94B71505
:102B2000982F8981892B898389810F900F90CF916C
:102B3000DF910895DF93CF9300D0CDB7DEB78A83BE
:102B4000198281E062E040E00E94970F982F89810E
:102B5000892B89838A810E94B715982F8981892BB7
:102B6000898389810F900F90CF91DF910895DF9332
:102B7000CF93CDB7DEB76E970FB6F894DEBF0FBE1A
:102B8000CDBF8E8F1D8E81E061E040E00E94970FE7
:102B9000982F8D8D892B8D8F81E060E040E00E9421
:102BA000970F982F8D8D892B8D8F8E8D982F991F34
:102BB0009927991F80E060E0492F0E94970F982F76
:102BC0008D8D892B8D8F8E8D8295869586958370C0
:102BD000982F917080E061E0492F0E94970F982F05
:102BE0008D8D892B8D8F8E8D829586958770982FF0
:102BF000917080E062E0492F0E94970F982F8D8D91
:102C0000892B8D8F8E8D82958F70982F917080E09B
:102C100063E0492F0E94970F982F8D8D892B8D8F00
:102C20008E8D869586958695982F917080E064E0CC
:102C3000492F0E94970F982F8D8D892B8D8F8E8D08
:102C400086958695982F917080E065E0492F0E94C7
:102C5000970F982F8D8D892B8D8F8E8D8695982F20
:102C6000917080E066E0492F0E94970F982F8D8D1C
:102C7000892B8D8F8E8D982F917080E067E0492F82
:102C80000E94970F982F8D8D892B8D8F81E060E0AA
:102C900041E00E94970F982F8D8D892B8D8F80E0BA
:102CA00090E0A0E2B1E4898F9A8FAB8FBC8F698DE1
:102CB0007A8D8B8D9C8D20E030E04AE753E40E94B2
:102CC0001702DC01CB018D8B9E8BAF8BB88F6D898A
:102CD0007E898F89988D20E030E040E85FE30E9494
:102CE000710388232CF481E090E09C8B8B8B3FC098
:102CF0006D897E898F89988D20E03FEF4FE757E4FB
:102D00000E94110318164CF5698D7A8D8B8D9C8D60
:102D100020E030E040E251E40E941702DC01CB01E8
:102D2000BC01CD010E944100DC01CB019C8B8B8B4F
:102D30000FC089E190E09A8B898B89899A890197E4
:102D4000F1F79A8B898B8B899C8901979C8B8B8B54
:102D50008B899C89009769F714C06D897E898F895A
:102D6000988D0E944100DC01CB019C8B8B8B8B8961
:102D70009C89988B8F878F8598890197F1F7988B1D
:102D80008F8781E060E040E00E94970F982F8D8D43
:102D9000892B8D8F80E090E0A0E2B1E48B879C8747
:102DA000AD87BE876B857C858D859E8520E030E074
:102DB0004AE753E40E941702DC01CB018F83988716
:102DC000A987BA876F81788589859A8520E030E068
:102DD00040E85FE30E94710388232CF481E090E0D7
:102DE0009E838D833FC06F81788589859A8520E099
:102DF0003FEF4FE757E40E94110318164CF56B851F
:102E00007C858D859E8520E030E040E251E40E9483
:102E10001702DC01CB01BC01CD010E944100DC01A5
:102E2000CB019E838D830FC089E190E09C838B83CF
:102E30008B819C810197F1F79C838B838D819E818F
:102E400001979E838D838D819E81009769F714C0C1
:102E50006F81788589859A850E944100DC01CB01CC
:102E60009E838D838D819E819A83898389819A81B6
:102E70000197F1F79A8389838D8D6E960FB6F8943A
:102E8000DEBF0FBECDBFCF91DF910895DF93CF930B
:102E9000CDB7DEB760970FB6F894DEBF0FBECDBFDB
:102EA000888B1F8681E062E040E00E94970F982F98
:102EB0008F85892B8F8781E061E040E00E94970F2A
:102EC000982F8F85892B8F8781E060E040E00E94FA
:102ED000970F982F8F85892B8F878889982F991F17
:102EE0009927991F80E060E0492F0E94970F982F43
:102EF0008F85892B8F8788898295869586958370A3
:102F0000982F917080E061E0492F0E94970F982FD1
:102F10008F85892B8F878889829586958770982FD2
:102F2000917080E062E0492F0E94970F982F8F8563
:102F3000892B8F87888982958F70982F917080E078
:102F400063E0492F0E94970F982F8F85892B8F87D9
:102F50008889869586958695982F917080E064E0A3
:102F6000492F0E94970F982F8F85892B8F878889EB
:102F700086958695982F917080E065E0492F0E9494
:102F8000970F982F8F85892B8F8788898695982F03
:102F9000917080E066E0492F0E94970F982F8F85EF
:102FA000892B8F878889982F917080E067E0492F5F
:102FB0000E94970F982F8F85892B8F8781E060E083
:102FC00041E00E94970F982F8F85892B8F8780E093
:102FD00090E0A0E2B1E48B879C87AD87BE876B85CC
:102FE0007C858D859E8520E030E04AE753E40E9491
:102FF0001702DC01CB018F839887A987BA876F817D
:10300000788589859A8520E030E040E85FE30E947A
:10301000710388232CF481E090E09E838D833FC070
:103020006F81788589859A8520E03FEF4FE757E4E7
:103030000E94110318164CF56B857C858D859E8545
:1030400020E030E040E251E40E941702DC01CB01B5
:10305000BC01CD010E944100DC01CB019E838D8328
:103060000FC089E190E09C838B838B819C810197C9
:10307000F1F79C838B838D819E8101979E838D8345
:103080008D819E81009769F714C06F81788589854D
:103090009A850E944100DC01CB019E838D838D8146
:1030A0009E819A83898389819A810197F1F79A8316
:1030B000898381E060E040E00E94970F982F8F8520
:1030C000892B8F878F8560960FB6F894DEBF0FBE71
:1030D000CDBFCF91DF910895DF93CF9300D00F92B2
:1030E000CDB7DEB79B838A8319828A819B81009743
:1030F000D1F013C081E062E041E00E94970F982F69
:103100008981892B8983EA81FB8180810E94B7159F
:103110008A819B8101969B838A83EA81FB818081DE
:10312000882341F702C082E0898389810F900F9044
:103130000F90CF91DF9108950F931F93DF93CF935B
:10314000CDB7DEB761970FB6F894DEBF0FBECDBF27
:103150006E877F87888B998B1B821A8219828E8556
:103160009F85A889B9890097A105B105A9F580E3D4
:103170000E947D159B81892B8B8351C08A81082FEA
:1031800010E08E859F85A889B9892AE030E040E06B
:1031900050E0BC01CD010E94CA19DC01CB01282FEF
:1031A000205DCE010496FC01E00FF11F20838E8587
:1031B0009F85A889B9892AE030E040E050E0BC0151
:1031C000CD010E94CA19DA01C9018E879F87A88B99
:1031D000B98B8A818F5F8A838E859F85A889B989FB
:1031E0000097A105B10551F68A81898315C08981AF
:1031F000882F90E09C0121503040CE010496FC01C4
:10320000E20FF31F80810E947D15982F8B81892BFF
:103210008B838981815089838981882341F78B81C0
:1032200061960FB6F894DEBF0FBECDBFCF91DF9190
:103230001F910F910895DF93CF9300D000D0CDB7A9
:10324000DEB789836A838A8181508A838981282FA6
:1032500030E03C832B838B819C818130910531F060
:103260002B813C812230310531F009C08A818058A0
:103270000E949A1504C08A8180540E949A150F906A
:103280000F900F900F90CF91DF910895DF93CF9320
:103290000F92CDB7DEB7198281E00E949A15982F60
:1032A0008981892B898389810F90CF91DF9108953E
:1032B000DF93CF9300D00F92CDB7DEB789836A83B7
:1032C0004B838A816B810E941B1989810E947D1525
:1032D00080E00F900F900F90CF91DF910895DF93D2
:1032E000CF9300D000D0CDB7DEB79A8389836B83AC
:1032F0004C838B816C810E941B1989819A810E9469
:103300006C1880E00F900F900F900F90CF91DF918D
:103310000895DF93CF9300D000D000D0CDB7DEB7B3
:1033200069837A838B839C834D832E838D816E8109
:103330000E941B1989819A81AB81BC81BC01CD019E
:103340000E949C1880E026960FB6F894DEBF0FBE50
:10335000CDBFCF91DF910895DF93CF93CDB7DEB787
:103360000E949B0581E090E0CF91DF91089597FB4B
:10337000092E07260AD077FD04D02ED006D00020D3
:103380001AF4709561957F4F0895F6F790958195A1
:103390009F4F0895A1E21A2EAA1BBB1BFD010DC071
:1033A000AA1FBB1FEE1FFF1FA217B307E407F507F5
:1033B00020F0A21BB30BE40BF50B661F771F881FD1
:1033C000991F1A9469F760957095809590959B0167
:1033D000AC01BD01CF010895AA1BBB1B51E107C081
:1033E000AA1FBB1FA617B70710F0A61BB70B881F95
:1033F000991F5A95A9F780959095BC01CD01089524
:103400002F923F924F925F926F927F928F929F92F4
:10341000AF92BF92CF92DF92EF92FF920F931F93E2
:10342000CF93DF93CDB7DEB7CA1BDB0B0FB6F89493
:10343000DEBF0FBECDBF09942A88398848885F84D3
:103440006E847D848C849B84AA84B984C884DF8044
:10345000EE80FD800C811B81AA81B981CE0FD11D28
:103460000FB6F894DEBF0FBECDBFED010895F894FE
:02347000FFCF8C
:10347200656E7465722070617373776F7264006534
:103482006E737572652070617373776F7264006C0E
:103492006F6164696E670057454C434F4D45005755
:1034A200524F4E472050415353574F5244004552BA
:1034B200524F5231000000000000000000040506D7
:1034C2000700010203070809250405067801020323
:0634D2002D24003D2B003B
:00000001FF
